{
  "contractName": "Registry",
  "abi": [
    {
      "inputs": [],
      "stateMutability": "nonpayable",
      "type": "constructor"
    },
    {
      "inputs": [
        {
          "internalType": "address",
          "name": "",
          "type": "address"
        }
      ],
      "name": "admins",
      "outputs": [
        {
          "internalType": "address",
          "name": "adminAddress",
          "type": "address"
        },
        {
          "internalType": "string",
          "name": "city",
          "type": "string"
        },
        {
          "internalType": "string",
          "name": "district",
          "type": "string"
        },
        {
          "internalType": "string",
          "name": "state",
          "type": "string"
        }
      ],
      "stateMutability": "view",
      "type": "function",
      "constant": true
    },
    {
      "inputs": [
        {
          "internalType": "address",
          "name": "",
          "type": "address"
        },
        {
          "internalType": "uint256",
          "name": "",
          "type": "uint256"
        }
      ],
      "name": "ownerMapsProperty",
      "outputs": [
        {
          "internalType": "uint256",
          "name": "surveyNumber",
          "type": "uint256"
        },
        {
          "internalType": "string",
          "name": "state",
          "type": "string"
        },
        {
          "internalType": "string",
          "name": "district",
          "type": "string"
        },
        {
          "internalType": "string",
          "name": "city",
          "type": "string"
        }
      ],
      "stateMutability": "view",
      "type": "function",
      "constant": true
    },
    {
      "inputs": [
        {
          "internalType": "address",
          "name": "",
          "type": "address"
        },
        {
          "internalType": "uint256",
          "name": "",
          "type": "uint256"
        }
      ],
      "name": "requestedLands",
      "outputs": [
        {
          "internalType": "uint256",
          "name": "surveyNumber",
          "type": "uint256"
        },
        {
          "internalType": "string",
          "name": "state",
          "type": "string"
        },
        {
          "internalType": "string",
          "name": "district",
          "type": "string"
        },
        {
          "internalType": "string",
          "name": "city",
          "type": "string"
        }
      ],
      "stateMutability": "view",
      "type": "function",
      "constant": true
    },
    {
      "inputs": [],
      "name": "superAdmin",
      "outputs": [
        {
          "internalType": "address",
          "name": "",
          "type": "address"
        }
      ],
      "stateMutability": "view",
      "type": "function",
      "constant": true
    },
    {
      "inputs": [],
      "name": "totalAdmins",
      "outputs": [
        {
          "internalType": "uint256",
          "name": "",
          "type": "uint256"
        }
      ],
      "stateMutability": "view",
      "type": "function",
      "constant": true
    },
    {
      "inputs": [
        {
          "internalType": "address",
          "name": "",
          "type": "address"
        }
      ],
      "name": "userProfile",
      "outputs": [
        {
          "internalType": "address",
          "name": "userAddr",
          "type": "address"
        },
        {
          "internalType": "string",
          "name": "fullName",
          "type": "string"
        },
        {
          "internalType": "string",
          "name": "gender",
          "type": "string"
        },
        {
          "internalType": "string",
          "name": "email",
          "type": "string"
        },
        {
          "internalType": "uint256",
          "name": "contact",
          "type": "uint256"
        },
        {
          "internalType": "string",
          "name": "residentialAddr",
          "type": "string"
        },
        {
          "internalType": "uint256",
          "name": "totalIndices",
          "type": "uint256"
        },
        {
          "internalType": "uint256",
          "name": "requestIndices",
          "type": "uint256"
        }
      ],
      "stateMutability": "view",
      "type": "function",
      "constant": true
    },
    {
      "inputs": [
        {
          "internalType": "address",
          "name": "_adminAddr",
          "type": "address"
        },
        {
          "internalType": "string",
          "name": "_state",
          "type": "string"
        },
        {
          "internalType": "string",
          "name": "_district",
          "type": "string"
        },
        {
          "internalType": "string",
          "name": "_city",
          "type": "string"
        }
      ],
      "name": "addAdmin",
      "outputs": [],
      "stateMutability": "nonpayable",
      "type": "function"
    },
    {
      "inputs": [],
      "name": "isAdmin",
      "outputs": [
        {
          "internalType": "bool",
          "name": "",
          "type": "bool"
        }
      ],
      "stateMutability": "view",
      "type": "function",
      "constant": true
    },
    {
      "inputs": [
        {
          "internalType": "string",
          "name": "_state",
          "type": "string"
        },
        {
          "internalType": "string",
          "name": "_district",
          "type": "string"
        },
        {
          "internalType": "string",
          "name": "_city",
          "type": "string"
        },
        {
          "internalType": "uint256",
          "name": "_propertyId",
          "type": "uint256"
        },
        {
          "internalType": "uint256",
          "name": "_surveyNo",
          "type": "uint256"
        },
        {
          "internalType": "address",
          "name": "_owner",
          "type": "address"
        },
        {
          "internalType": "uint256",
          "name": "_marketValue",
          "type": "uint256"
        },
        {
          "internalType": "uint256",
          "name": "_sqft",
          "type": "uint256"
        },
        {
          "internalType": "string",
          "name": "_longitude",
          "type": "string"
        },
        {
          "internalType": "string",
          "name": "_latitude",
          "type": "string"
        }
      ],
      "name": "registerLand",
      "outputs": [],
      "stateMutability": "nonpayable",
      "type": "function"
    },
    {
      "inputs": [
        {
          "internalType": "string",
          "name": "_fullName",
          "type": "string"
        },
        {
          "internalType": "string",
          "name": "_gender",
          "type": "string"
        },
        {
          "internalType": "string",
          "name": "_email",
          "type": "string"
        },
        {
          "internalType": "uint256",
          "name": "_contact",
          "type": "uint256"
        },
        {
          "internalType": "string",
          "name": "_residentialAddr",
          "type": "string"
        }
      ],
      "name": "setUserProfile",
      "outputs": [],
      "stateMutability": "nonpayable",
      "type": "function"
    },
    {
      "inputs": [
        {
          "internalType": "uint256",
          "name": "indexNo",
          "type": "uint256"
        }
      ],
      "name": "markMyPropertyAvailable",
      "outputs": [],
      "stateMutability": "nonpayable",
      "type": "function"
    },
    {
      "inputs": [
        {
          "internalType": "string",
          "name": "_state",
          "type": "string"
        },
        {
          "internalType": "string",
          "name": "_district",
          "type": "string"
        },
        {
          "internalType": "string",
          "name": "_city",
          "type": "string"
        },
        {
          "internalType": "uint256",
          "name": "_surveyNo",
          "type": "uint256"
        }
      ],
      "name": "RequestForBuy",
      "outputs": [],
      "stateMutability": "nonpayable",
      "type": "function"
    },
    {
      "inputs": [
        {
          "internalType": "uint256",
          "name": "_index",
          "type": "uint256"
        },
        {
          "internalType": "uint256",
          "name": "_reqNo",
          "type": "uint256"
        }
      ],
      "name": "AcceptRequest",
      "outputs": [],
      "stateMutability": "nonpayable",
      "type": "function"
    },
    {
      "inputs": [
        {
          "internalType": "string",
          "name": "_state",
          "type": "string"
        },
        {
          "internalType": "string",
          "name": "_district",
          "type": "string"
        },
        {
          "internalType": "string",
          "name": "_city",
          "type": "string"
        },
        {
          "internalType": "uint256",
          "name": "_surveyNo",
          "type": "uint256"
        }
      ],
      "name": "getLandDetails",
      "outputs": [
        {
          "internalType": "address",
          "name": "",
          "type": "address"
        },
        {
          "internalType": "uint256",
          "name": "",
          "type": "uint256"
        },
        {
          "internalType": "uint256",
          "name": "",
          "type": "uint256"
        },
        {
          "internalType": "uint256",
          "name": "",
          "type": "uint256"
        },
        {
          "internalType": "uint256",
          "name": "",
          "type": "uint256"
        }
      ],
      "stateMutability": "view",
      "type": "function",
      "constant": true
    },
    {
      "inputs": [
        {
          "internalType": "string",
          "name": "_state",
          "type": "string"
        },
        {
          "internalType": "string",
          "name": "_district",
          "type": "string"
        },
        {
          "internalType": "string",
          "name": "_city",
          "type": "string"
        },
        {
          "internalType": "uint256",
          "name": "_surveyNo",
          "type": "uint256"
        }
      ],
      "name": "getLandLongitudeLatitude",
      "outputs": [
        {
          "internalType": "string",
          "name": "",
          "type": "string"
        },
        {
          "internalType": "string",
          "name": "",
          "type": "string"
        }
      ],
      "stateMutability": "view",
      "type": "function",
      "constant": true
    },
    {
      "inputs": [
        {
          "internalType": "string",
          "name": "_state",
          "type": "string"
        },
        {
          "internalType": "string",
          "name": "_district",
          "type": "string"
        },
        {
          "internalType": "string",
          "name": "_city",
          "type": "string"
        },
        {
          "internalType": "uint256",
          "name": "_surveyNo",
          "type": "uint256"
        }
      ],
      "name": "getRequestCnt_propId",
      "outputs": [
        {
          "internalType": "uint256",
          "name": "",
          "type": "uint256"
        },
        {
          "internalType": "uint256",
          "name": "",
          "type": "uint256"
        }
      ],
      "stateMutability": "view",
      "type": "function",
      "constant": true
    },
    {
      "inputs": [
        {
          "internalType": "string",
          "name": "_state",
          "type": "string"
        },
        {
          "internalType": "string",
          "name": "_district",
          "type": "string"
        },
        {
          "internalType": "string",
          "name": "_city",
          "type": "string"
        },
        {
          "internalType": "uint256",
          "name": "_surveyNo",
          "type": "uint256"
        },
        {
          "internalType": "uint256",
          "name": "_reqIndex",
          "type": "uint256"
        }
      ],
      "name": "getRequesterDetail",
      "outputs": [
        {
          "internalType": "address",
          "name": "",
          "type": "address"
        }
      ],
      "stateMutability": "view",
      "type": "function",
      "constant": true
    },
    {
      "inputs": [
        {
          "internalType": "string",
          "name": "_state",
          "type": "string"
        },
        {
          "internalType": "string",
          "name": "_district",
          "type": "string"
        },
        {
          "internalType": "string",
          "name": "_city",
          "type": "string"
        },
        {
          "internalType": "uint256",
          "name": "_surveyNo",
          "type": "uint256"
        }
      ],
      "name": "isAvailable",
      "outputs": [
        {
          "internalType": "bool",
          "name": "",
          "type": "bool"
        }
      ],
      "stateMutability": "view",
      "type": "function",
      "constant": true
    },
    {
      "inputs": [
        {
          "internalType": "uint256",
          "name": "indx",
          "type": "uint256"
        }
      ],
      "name": "getOwnerOwns",
      "outputs": [
        {
          "internalType": "string",
          "name": "",
          "type": "string"
        },
        {
          "internalType": "string",
          "name": "",
          "type": "string"
        },
        {
          "internalType": "string",
          "name": "",
          "type": "string"
        },
        {
          "internalType": "uint256",
          "name": "",
          "type": "uint256"
        }
      ],
      "stateMutability": "view",
      "type": "function",
      "constant": true
    },
    {
      "inputs": [
        {
          "internalType": "uint256",
          "name": "indx",
          "type": "uint256"
        }
      ],
      "name": "getRequestedLands",
      "outputs": [
        {
          "internalType": "string",
          "name": "",
          "type": "string"
        },
        {
          "internalType": "string",
          "name": "",
          "type": "string"
        },
        {
          "internalType": "string",
          "name": "",
          "type": "string"
        },
        {
          "internalType": "uint256",
          "name": "",
          "type": "uint256"
        }
      ],
      "stateMutability": "view",
      "type": "function",
      "constant": true
    },
    {
      "inputs": [],
      "name": "getUserProfile",
      "outputs": [
        {
          "internalType": "string",
          "name": "",
          "type": "string"
        },
        {
          "internalType": "string",
          "name": "",
          "type": "string"
        },
        {
          "internalType": "string",
          "name": "",
          "type": "string"
        },
        {
          "internalType": "uint256",
          "name": "",
          "type": "uint256"
        },
        {
          "internalType": "string",
          "name": "",
          "type": "string"
        }
      ],
      "stateMutability": "view",
      "type": "function",
      "constant": true
    },
    {
      "inputs": [],
      "name": "getIndices",
      "outputs": [
        {
          "internalType": "uint256",
          "name": "",
          "type": "uint256"
        },
        {
          "internalType": "uint256",
          "name": "",
          "type": "uint256"
        }
      ],
      "stateMutability": "view",
      "type": "function",
      "constant": true
    },
    {
      "inputs": [
        {
          "internalType": "string",
          "name": "_state",
          "type": "string"
        },
        {
          "internalType": "string",
          "name": "_district",
          "type": "string"
        },
        {
          "internalType": "string",
          "name": "_city",
          "type": "string"
        },
        {
          "internalType": "uint256",
          "name": "_surveyNo",
          "type": "uint256"
        }
      ],
      "name": "didIRequested",
      "outputs": [
        {
          "internalType": "bool",
          "name": "",
          "type": "bool"
        }
      ],
      "stateMutability": "view",
      "type": "function",
      "constant": true
    }
  ],
  "bytecode": "0x608060405234801561001057600080fd5b50336000806101000a81548173ffffffffffffffffffffffffffffffffffffffff021916908373ffffffffffffffffffffffffffffffffffffffff160217905550614bd7806100606000396000f3fe608060405234801561001057600080fd5b506004361061014d5760003560e01c806388c958c4116100c3578063d06efd671161007c578063d06efd67146103ef578063d1dbeff214610420578063d41cc5c814610453578063e331ad7c1461046f578063eaec23fa146104a3578063eb68048b146104d35761014d565b806388c958c41461031c5780638a80e4e41461034d5780639542d81114610369578063992369da14610385578063b6db75a0146103b5578063bfde241c146103d35761014d565b80633bbd43b3116101155780633bbd43b314610229578063429b62e51461025957806344e057341461028c5780635863056d146102a85780636d1b9a8e146102c75780636f61c744146102fa5761014d565b806303825d6c146101525780630e2279af1461016e5780631c8e8962146101a157806329575f6a146101d85780632ca305f3146101f6575b600080fd5b61016c60048036038101906101679190613d8f565b6104f1565b005b61018860048036038101906101839190613e80565b6105e1565b6040516101989493929190613f57565b60405180910390f35b6101bb60048036038101906101b69190613fb1565b6107b6565b6040516101cf989796959493929190613fed565b60405180910390f35b6101e0610a3e565b6040516101ed9190614087565b60405180910390f35b610210600480360381019061020b91906140a2565b610a62565b60405161022094939291906140cf565b60405180910390f35b610243600480360381019061023e9190614129565b610d77565b6040516102509190614087565b60405180910390f35b610273600480360381019061026e9190613fb1565b610e28565b60405161028394939291906141f8565b60405180910390f35b6102a660048036038101906102a191906140a2565b611010565b005b6102b0611450565b6040516102be929190614252565b60405180910390f35b6102e160048036038101906102dc91906140a2565b6114ed565b6040516102f194939291906140cf565b60405180910390f35b610302611802565b60405161031395949392919061427b565b60405180910390f35b610336600480360381019061033191906142ea565b611ba9565b6040516103449291906143a5565b60405180910390f35b610367600480360381019061036291906142ea565b611dab565b005b610383600480360381019061037e91906143dc565b612092565b005b61039f600480360381019061039a91906142ea565b6127a7565b6040516103ac9190614562565b60405180910390f35b6103bd612830565b6040516103ca9190614562565b60405180910390f35b6103ed60048036038101906103e8919061457d565b6128d9565b005b610409600480360381019061040491906142ea565b612991565b604051610417929190614252565b60405180910390f35b61043a60048036038101906104359190613e80565b612a83565b60405161044a9493929190613f57565b60405180910390f35b61046d60048036038101906104689190614668565b612c58565b005b610489600480360381019061048491906142ea565b61374e565b60405161049a9594939291906146a8565b60405180910390f35b6104bd60048036038101906104b891906142ea565b6139bf565b6040516104ca9190614562565b60405180910390f35b6104db613aee565b6040516104e891906146fb565b60405180910390f35b6000600260008673ffffffffffffffffffffffffffffffffffffffff1673ffffffffffffffffffffffffffffffffffffffff16815260200190815260200160002090506001600081548092919061054790614745565b9190505550848160000160006101000a81548173ffffffffffffffffffffffffffffffffffffffff021916908373ffffffffffffffffffffffffffffffffffffffff160217905550818160010190805190602001906105a7929190613af4565b50828160020190805190602001906105c0929190613af4565b50838160030190805190602001906105d9929190613af4565b505050505050565b600460205281600052604060002060205280600052604060002060009150915050806000015490806001018054610617906147bd565b80601f0160208091040260200160405190810160405280929190818152602001828054610643906147bd565b80156106905780601f1061066557610100808354040283529160200191610690565b820191906000526020600020905b81548152906001019060200180831161067357829003601f168201915b5050505050908060020180546106a5906147bd565b80601f01602080910402602001604051908101604052809291908181526020018280546106d1906147bd565b801561071e5780601f106106f35761010080835404028352916020019161071e565b820191906000526020600020905b81548152906001019060200180831161070157829003601f168201915b505050505090806003018054610733906147bd565b80601f016020809104026020016040519081016040528092919081815260200182805461075f906147bd565b80156107ac5780601f10610781576101008083540402835291602001916107ac565b820191906000526020600020905b81548152906001019060200180831161078f57829003601f168201915b5050505050905084565b60076020528060005260406000206000915090508060000160009054906101000a900473ffffffffffffffffffffffffffffffffffffffff16908060010180546107ff906147bd565b80601f016020809104026020016040519081016040528092919081815260200182805461082b906147bd565b80156108785780601f1061084d57610100808354040283529160200191610878565b820191906000526020600020905b81548152906001019060200180831161085b57829003601f168201915b50505050509080600201805461088d906147bd565b80601f01602080910402602001604051908101604052809291908181526020018280546108b9906147bd565b80156109065780601f106108db57610100808354040283529160200191610906565b820191906000526020600020905b8154815290600101906020018083116108e957829003601f168201915b50505050509080600301805461091b906147bd565b80601f0160208091040260200160405190810160405280929190818152602001828054610947906147bd565b80156109945780601f1061096957610100808354040283529160200191610994565b820191906000526020600020905b81548152906001019060200180831161097757829003601f168201915b5050505050908060040154908060050180546109af906147bd565b80601f01602080910402602001604051908101604052809291908181526020018280546109db906147bd565b8015610a285780601f106109fd57610100808354040283529160200191610a28565b820191906000526020600020905b815481529060010190602001808311610a0b57829003601f168201915b5050505050908060060154908060070154905088565b60008054906101000a900473ffffffffffffffffffffffffffffffffffffffff1681565b6060806060600080600460003373ffffffffffffffffffffffffffffffffffffffff1673ffffffffffffffffffffffffffffffffffffffff16815260200190815260200160002060008781526020019081526020016000206000015490506000600460003373ffffffffffffffffffffffffffffffffffffffff1673ffffffffffffffffffffffffffffffffffffffff16815260200190815260200160002060008881526020019081526020016000206001018054610b20906147bd565b80601f0160208091040260200160405190810160405280929190818152602001828054610b4c906147bd565b8015610b995780601f10610b6e57610100808354040283529160200191610b99565b820191906000526020600020905b815481529060010190602001808311610b7c57829003601f168201915b505050505090506000600460003373ffffffffffffffffffffffffffffffffffffffff1673ffffffffffffffffffffffffffffffffffffffff16815260200190815260200160002060008981526020019081526020016000206002018054610c00906147bd565b80601f0160208091040260200160405190810160405280929190818152602001828054610c2c906147bd565b8015610c795780601f10610c4e57610100808354040283529160200191610c79565b820191906000526020600020905b815481529060010190602001808311610c5c57829003601f168201915b505050505090506000600460003373ffffffffffffffffffffffffffffffffffffffff1673ffffffffffffffffffffffffffffffffffffffff16815260200190815260200160002060008a81526020019081526020016000206003018054610ce0906147bd565b80601f0160208091040260200160405190810160405280929190818152602001828054610d0c906147bd565b8015610d595780601f10610d2e57610100808354040283529160200191610d59565b820191906000526020600020905b815481529060010190602001808311610d3c57829003601f168201915b50505050509050828282869750975097509750505050509193509193565b600080600587604051610d8a919061482b565b908152602001604051809103902086604051610da6919061482b565b908152602001604051809103902085604051610dc2919061482b565b90815260200160405180910390206000858152602001908152602001600020600801600084815260200190815260200160002060000160009054906101000a900473ffffffffffffffffffffffffffffffffffffffff1690508091505095945050505050565b60026020528060005260406000206000915090508060000160009054906101000a900473ffffffffffffffffffffffffffffffffffffffff1690806001018054610e71906147bd565b80601f0160208091040260200160405190810160405280929190818152602001828054610e9d906147bd565b8015610eea5780601f10610ebf57610100808354040283529160200191610eea565b820191906000526020600020905b815481529060010190602001808311610ecd57829003601f168201915b505050505090806002018054610eff906147bd565b80601f0160208091040260200160405190810160405280929190818152602001828054610f2b906147bd565b8015610f785780601f10610f4d57610100808354040283529160200191610f78565b820191906000526020600020905b815481529060010190602001808311610f5b57829003601f168201915b505050505090806003018054610f8d906147bd565b80601f0160208091040260200160405190810160405280929190818152602001828054610fb9906147bd565b80156110065780601f10610fdb57610100808354040283529160200191611006565b820191906000526020600020905b815481529060010190602001808311610fe957829003601f168201915b5050505050905084565b6000600360003373ffffffffffffffffffffffffffffffffffffffff1673ffffffffffffffffffffffffffffffffffffffff16815260200190815260200160002060008381526020019081526020016000206001018054611070906147bd565b80601f016020809104026020016040519081016040528092919081815260200182805461109c906147bd565b80156110e95780601f106110be576101008083540402835291602001916110e9565b820191906000526020600020905b8154815290600101906020018083116110cc57829003601f168201915b505050505090506000600360003373ffffffffffffffffffffffffffffffffffffffff1673ffffffffffffffffffffffffffffffffffffffff16815260200190815260200160002060008481526020019081526020016000206002018054611150906147bd565b80601f016020809104026020016040519081016040528092919081815260200182805461117c906147bd565b80156111c95780601f1061119e576101008083540402835291602001916111c9565b820191906000526020600020905b8154815290600101906020018083116111ac57829003601f168201915b505050505090506000600360003373ffffffffffffffffffffffffffffffffffffffff1673ffffffffffffffffffffffffffffffffffffffff16815260200190815260200160002060008581526020019081526020016000206003018054611230906147bd565b80601f016020809104026020016040519081016040528092919081815260200182805461125c906147bd565b80156112a95780601f1061127e576101008083540402835291602001916112a9565b820191906000526020600020905b81548152906001019060200180831161128c57829003601f168201915b505050505090506000600360003373ffffffffffffffffffffffffffffffffffffffff1673ffffffffffffffffffffffffffffffffffffffff16815260200190815260200160002060008681526020019081526020016000206000015490506000151560058560405161131c919061482b565b908152602001604051809103902084604051611338919061482b565b908152602001604051809103902083604051611354919061482b565b9081526020016040518091039020600083815260200190815260200160002060070160009054906101000a900460ff161515146113c6576040517f08c379a00000000000000000000000000000000000000000000000000000000081526004016113bd906148b4565b60405180910390fd5b60016005856040516113d8919061482b565b9081526020016040518091039020846040516113f4919061482b565b908152602001604051809103902083604051611410919061482b565b9081526020016040518091039020600083815260200190815260200160002060070160006101000a81548160ff0219169083151502179055505050505050565b6000806000600760003373ffffffffffffffffffffffffffffffffffffffff1673ffffffffffffffffffffffffffffffffffffffff1681526020019081526020016000206006015490506000600760003373ffffffffffffffffffffffffffffffffffffffff1673ffffffffffffffffffffffffffffffffffffffff16815260200190815260200160002060070154905081819350935050509091565b6060806060600080600360003373ffffffffffffffffffffffffffffffffffffffff1673ffffffffffffffffffffffffffffffffffffffff16815260200190815260200160002060008781526020019081526020016000206000015490506000600360003373ffffffffffffffffffffffffffffffffffffffff1673ffffffffffffffffffffffffffffffffffffffff168152602001908152602001600020600088815260200190815260200160002060010180546115ab906147bd565b80601f01602080910402602001604051908101604052809291908181526020018280546115d7906147bd565b80156116245780601f106115f957610100808354040283529160200191611624565b820191906000526020600020905b81548152906001019060200180831161160757829003601f168201915b505050505090506000600360003373ffffffffffffffffffffffffffffffffffffffff1673ffffffffffffffffffffffffffffffffffffffff1681526020019081526020016000206000898152602001908152602001600020600201805461168b906147bd565b80601f01602080910402602001604051908101604052809291908181526020018280546116b7906147bd565b80156117045780601f106116d957610100808354040283529160200191611704565b820191906000526020600020905b8154815290600101906020018083116116e757829003601f168201915b505050505090506000600360003373ffffffffffffffffffffffffffffffffffffffff1673ffffffffffffffffffffffffffffffffffffffff16815260200190815260200160002060008a8152602001908152602001600020600301805461176b906147bd565b80601f0160208091040260200160405190810160405280929190818152602001828054611797906147bd565b80156117e45780601f106117b9576101008083540402835291602001916117e4565b820191906000526020600020905b8154815290600101906020018083116117c757829003601f168201915b50505050509050828282869750975097509750505050509193509193565b6060806060600060606000600760003373ffffffffffffffffffffffffffffffffffffffff1673ffffffffffffffffffffffffffffffffffffffff168152602001908152602001600020600101805461185a906147bd565b80601f0160208091040260200160405190810160405280929190818152602001828054611886906147bd565b80156118d35780601f106118a8576101008083540402835291602001916118d3565b820191906000526020600020905b8154815290600101906020018083116118b657829003601f168201915b505050505090506000600760003373ffffffffffffffffffffffffffffffffffffffff1673ffffffffffffffffffffffffffffffffffffffff1681526020019081526020016000206002018054611929906147bd565b80601f0160208091040260200160405190810160405280929190818152602001828054611955906147bd565b80156119a25780601f10611977576101008083540402835291602001916119a2565b820191906000526020600020905b81548152906001019060200180831161198557829003601f168201915b505050505090506000600760003373ffffffffffffffffffffffffffffffffffffffff1673ffffffffffffffffffffffffffffffffffffffff16815260200190815260200160002060030180546119f8906147bd565b80601f0160208091040260200160405190810160405280929190818152602001828054611a24906147bd565b8015611a715780601f10611a4657610100808354040283529160200191611a71565b820191906000526020600020905b815481529060010190602001808311611a5457829003601f168201915b505050505090506000600760003373ffffffffffffffffffffffffffffffffffffffff1673ffffffffffffffffffffffffffffffffffffffff1681526020019081526020016000206004015490506000600760003373ffffffffffffffffffffffffffffffffffffffff1673ffffffffffffffffffffffffffffffffffffffff1681526020019081526020016000206005018054611b0e906147bd565b80601f0160208091040260200160405190810160405280929190818152602001828054611b3a906147bd565b8015611b875780601f10611b5c57610100808354040283529160200191611b87565b820191906000526020600020905b815481529060010190602001808311611b6a57829003601f168201915b5050505050905084848484849950995099509950995050505050509091929394565b6060806000600687604051611bbe919061482b565b908152602001604051809103902086604051611bda919061482b565b908152602001604051809103902085604051611bf6919061482b565b908152602001604051809103902060008581526020019081526020016000206000018054611c23906147bd565b80601f0160208091040260200160405190810160405280929190818152602001828054611c4f906147bd565b8015611c9c5780601f10611c7157610100808354040283529160200191611c9c565b820191906000526020600020905b815481529060010190602001808311611c7f57829003601f168201915b505050505090506000600688604051611cb5919061482b565b908152602001604051809103902087604051611cd1919061482b565b908152602001604051809103902086604051611ced919061482b565b908152602001604051809103902060008681526020019081526020016000206001018054611d1a906147bd565b80601f0160208091040260200160405190810160405280929190818152602001828054611d46906147bd565b8015611d935780601f10611d6857610100808354040283529160200191611d93565b820191906000526020600020905b815481529060010190602001808311611d7657829003601f168201915b50505050509050818193509350505094509492505050565b6000600585604051611dbd919061482b565b908152602001604051809103902084604051611dd9919061482b565b908152602001604051809103902083604051611df5919061482b565b908152602001604051809103902060008381526020019081526020016000209050600115158160070160009054906101000a900460ff16151514611e6e576040517f08c379a0000000000000000000000000000000000000000000000000000000008152600401611e6590614946565b60405180910390fd5b6000816009015490503382600801600083815260200190815260200160002060000160006101000a81548173ffffffffffffffffffffffffffffffffffffffff021916908373ffffffffffffffffffffffffffffffffffffffff160217905550600760003373ffffffffffffffffffffffffffffffffffffffff1673ffffffffffffffffffffffffffffffffffffffff1681526020019081526020016000206007015482600801600083815260200190815260200160002060010181905550816009016000815480929190611f4290614745565b91905055506000600460003373ffffffffffffffffffffffffffffffffffffffff1673ffffffffffffffffffffffffffffffffffffffff1681526020019081526020016000206000600760003373ffffffffffffffffffffffffffffffffffffffff1673ffffffffffffffffffffffffffffffffffffffff168152602001908152602001600020600701548152602001908152602001600020905083816000018190555086816001019080519060200190611ffe929190613af4565b5085816002019080519060200190612017929190613af4565b5084816003019080519060200190612030929190613af4565b50600760003373ffffffffffffffffffffffffffffffffffffffff1673ffffffffffffffffffffffffffffffffffffffff168152602001908152602001600020600701600081548092919061208490614745565b919050555050505050505050565b3373ffffffffffffffffffffffffffffffffffffffff16600260003373ffffffffffffffffffffffffffffffffffffffff1673ffffffffffffffffffffffffffffffffffffffff16815260200190815260200160002060000160009054906101000a900473ffffffffffffffffffffffffffffffffffffffff1673ffffffffffffffffffffffffffffffffffffffff1614612162576040517f08c379a0000000000000000000000000000000000000000000000000000000008152600401612159906149b2565b60405180910390fd5b89604051602001612173919061482b565b60405160208183030381529060405280519060200120600260003373ffffffffffffffffffffffffffffffffffffffff1673ffffffffffffffffffffffffffffffffffffffff1681526020019081526020016000206003016040516020016121db9190614a66565b6040516020818303038152906040528051906020012014801561228a57508860405160200161220a919061482b565b60405160208183030381529060405280519060200120600260003373ffffffffffffffffffffffffffffffffffffffff1673ffffffffffffffffffffffffffffffffffffffff1681526020019081526020016000206002016040516020016122729190614a66565b60405160208183030381529060405280519060200120145b80156123225750876040516020016122a2919061482b565b60405160208183030381529060405280519060200120600260003373ffffffffffffffffffffffffffffffffffffffff1673ffffffffffffffffffffffffffffffffffffffff16815260200190815260200160002060010160405160200161230a9190614a66565b60405160208183030381529060405280519060200120145b612361576040517f08c379a000000000000000000000000000000000000000000000000000000000815260040161235890614aef565b60405180910390fd5b6000151560058b604051612375919061482b565b90815260200160405180910390208a604051612391919061482b565b9081526020016040518091039020896040516123ad919061482b565b9081526020016040518091039020600088815260200190815260200160002060050160009054906101000a900460ff1615151461241f576040517f08c379a000000000000000000000000000000000000000000000000000000000815260040161241690614b81565b60405180910390fd5b600060058b604051612431919061482b565b90815260200160405180910390208a60405161244d919061482b565b908152602001604051809103902089604051612469919061482b565b908152602001604051809103902060008881526020019081526020016000209050600060068c60405161249c919061482b565b90815260200160405180910390208b6040516124b8919061482b565b90815260200160405180910390208a6040516124d4919061482b565b9081526020016040518091039020600089815260200190815260200160002090506000600360008973ffffffffffffffffffffffffffffffffffffffff1673ffffffffffffffffffffffffffffffffffffffff1681526020019081526020016000206000600760008b73ffffffffffffffffffffffffffffffffffffffff1673ffffffffffffffffffffffffffffffffffffffff1681526020019081526020016000206006015481526020019081526020016000209050878360000160006101000a81548173ffffffffffffffffffffffffffffffffffffffff021916908373ffffffffffffffffffffffffffffffffffffffff160217905550338360010160006101000a81548173ffffffffffffffffffffffffffffffffffffffff021916908373ffffffffffffffffffffffffffffffffffffffff160217905550898360020181905550888360030181905550600760008973ffffffffffffffffffffffffffffffffffffffff1673ffffffffffffffffffffffffffffffffffffffff16815260200190815260200160002060060154836004018190555060018360050160006101000a81548160ff02191690831515021790555086836006018190555060008360070160006101000a81548160ff0219169083151502179055508583600a0181905550848260000190805190602001906126d2929190613af4565b50838260010190805190602001906126eb929190613af4565b508881600001819055508c81600101908051906020019061270d929190613af4565b508b816002019080519060200190612726929190613af4565b508a81600301908051906020019061273f929190613af4565b50600760008973ffffffffffffffffffffffffffffffffffffffff1673ffffffffffffffffffffffffffffffffffffffff168152602001908152602001600020600601600081548092919061279390614745565b919050555050505050505050505050505050565b6000806005866040516127ba919061482b565b9081526020016040518091039020856040516127d6919061482b565b9081526020016040518091039020846040516127f2919061482b565b9081526020016040518091039020600084815260200190815260200160002060070160009054906101000a900460ff16905080915050949350505050565b60003373ffffffffffffffffffffffffffffffffffffffff16600260003373ffffffffffffffffffffffffffffffffffffffff1673ffffffffffffffffffffffffffffffffffffffff16815260200190815260200160002060000160009054906101000a900473ffffffffffffffffffffffffffffffffffffffff1673ffffffffffffffffffffffffffffffffffffffff1614156128d157600190506128d6565b600090505b90565b6000600760003373ffffffffffffffffffffffffffffffffffffffff1673ffffffffffffffffffffffffffffffffffffffff168152602001908152602001600020905085816001019080519060200190612934929190613af4565b508481600201908051906020019061294d929190613af4565b5083816003019080519060200190612966929190613af4565b5082816004018190555081816005019080519060200190612988929190613af4565b50505050505050565b60008060006005876040516129a6919061482b565b9081526020016040518091039020866040516129c2919061482b565b9081526020016040518091039020856040516129de919061482b565b908152602001604051809103902060008581526020019081526020016000206009015490506000600588604051612a15919061482b565b908152602001604051809103902087604051612a31919061482b565b908152602001604051809103902086604051612a4d919061482b565b90815260200160405180910390206000868152602001908152602001600020600201549050818193509350505094509492505050565b600360205281600052604060002060205280600052604060002060009150915050806000015490806001018054612ab9906147bd565b80601f0160208091040260200160405190810160405280929190818152602001828054612ae5906147bd565b8015612b325780601f10612b0757610100808354040283529160200191612b32565b820191906000526020600020905b815481529060010190602001808311612b1557829003601f168201915b505050505090806002018054612b47906147bd565b80601f0160208091040260200160405190810160405280929190818152602001828054612b73906147bd565b8015612bc05780601f10612b9557610100808354040283529160200191612bc0565b820191906000526020600020905b815481529060010190602001808311612ba357829003601f168201915b505050505090806003018054612bd5906147bd565b80601f0160208091040260200160405190810160405280929190818152602001828054612c01906147bd565b8015612c4e5780601f10612c2357610100808354040283529160200191612c4e565b820191906000526020600020905b815481529060010190602001808311612c3157829003601f168201915b5050505050905084565b6000600360003373ffffffffffffffffffffffffffffffffffffffff1673ffffffffffffffffffffffffffffffffffffffff16815260200190815260200160002060008481526020019081526020016000206000015490506000600360003373ffffffffffffffffffffffffffffffffffffffff1673ffffffffffffffffffffffffffffffffffffffff16815260200190815260200160002060008581526020019081526020016000206001018054612d10906147bd565b80601f0160208091040260200160405190810160405280929190818152602001828054612d3c906147bd565b8015612d895780601f10612d5e57610100808354040283529160200191612d89565b820191906000526020600020905b815481529060010190602001808311612d6c57829003601f168201915b505050505090506000600360003373ffffffffffffffffffffffffffffffffffffffff1673ffffffffffffffffffffffffffffffffffffffff16815260200190815260200160002060008681526020019081526020016000206002018054612df0906147bd565b80601f0160208091040260200160405190810160405280929190818152602001828054612e1c906147bd565b8015612e695780601f10612e3e57610100808354040283529160200191612e69565b820191906000526020600020905b815481529060010190602001808311612e4c57829003601f168201915b505050505090506000600360003373ffffffffffffffffffffffffffffffffffffffff1673ffffffffffffffffffffffffffffffffffffffff16815260200190815260200160002060008781526020019081526020016000206003018054612ed0906147bd565b80601f0160208091040260200160405190810160405280929190818152602001828054612efc906147bd565b8015612f495780601f10612f1e57610100808354040283529160200191612f49565b820191906000526020600020905b815481529060010190602001808311612f2c57829003601f168201915b505050505090506000600584604051612f62919061482b565b908152602001604051809103902083604051612f7e919061482b565b908152602001604051809103902082604051612f9a919061482b565b90815260200160405180910390206000868152602001908152602001600020600801600087815260200190815260200160002060000160009054906101000a900473ffffffffffffffffffffffffffffffffffffffff1690506000600585604051613005919061482b565b908152602001604051809103902084604051613021919061482b565b90815260200160405180910390208360405161303d919061482b565b9081526020016040518091039020600087815260200190815260200160002060080160008881526020019081526020016000206001015490506000600586604051613088919061482b565b9081526020016040518091039020856040516130a4919061482b565b9081526020016040518091039020846040516130c0919061482b565b9081526020016040518091039020600088815260200190815260200160002060090154905060005b81811015613363576000600588604051613102919061482b565b90815260200160405180910390208760405161311e919061482b565b90815260200160405180910390208660405161313a919061482b565b908152602001604051809103902060008a8152602001908152602001600020600801600083815260200190815260200160002060000160009054906101000a900473ffffffffffffffffffffffffffffffffffffffff16905060006005896040516131a5919061482b565b9081526020016040518091039020886040516131c1919061482b565b9081526020016040518091039020876040516131dd919061482b565b908152602001604051809103902060008b81526020019081526020016000206008016000848152602001908152602001600020600101549050600460008373ffffffffffffffffffffffffffffffffffffffff1673ffffffffffffffffffffffffffffffffffffffff168152602001908152602001600020600082815260200190815260200160002060008082016000905560018201600061327f9190613b7a565b60028201600061328f9190613b7a565b60038201600061329f9190613b7a565b50506005896040516132b1919061482b565b9081526020016040518091039020886040516132cd919061482b565b9081526020016040518091039020876040516132e9919061482b565b908152602001604051809103902060008b81526020019081526020016000206008016000848152602001908152602001600020600080820160006101000a81549073ffffffffffffffffffffffffffffffffffffffff0219169055600182016000905550505050808061335b90614745565b9150506130e8565b5082600587604051613375919061482b565b908152602001604051809103902086604051613391919061482b565b9081526020016040518091039020856040516133ad919061482b565b9081526020016040518091039020600089815260200190815260200160002060000160006101000a81548173ffffffffffffffffffffffffffffffffffffffff021916908373ffffffffffffffffffffffffffffffffffffffff160217905550600060058760405161341f919061482b565b90815260200160405180910390208660405161343b919061482b565b908152602001604051809103902085604051613457919061482b565b9081526020016040518091039020600089815260200190815260200160002060070160006101000a81548160ff02191690831515021790555060006005876040516134a2919061482b565b9081526020016040518091039020866040516134be919061482b565b9081526020016040518091039020856040516134da919061482b565b9081526020016040518091039020600089815260200190815260200160002060090181905550600360003373ffffffffffffffffffffffffffffffffffffffff1673ffffffffffffffffffffffffffffffffffffffff16815260200190815260200160002060008a81526020019081526020016000206000808201600090556001820160006135699190613b7a565b6002820160006135799190613b7a565b6003820160006135899190613b7a565b50506000600760008573ffffffffffffffffffffffffffffffffffffffff1673ffffffffffffffffffffffffffffffffffffffff1681526020019081526020016000206006015490506000600360008673ffffffffffffffffffffffffffffffffffffffff1673ffffffffffffffffffffffffffffffffffffffff1681526020019081526020016000206000838152602001908152602001600020905088816000018190555087816001019080519060200190613647929190613af4565b5086816002019080519060200190613660929190613af4565b5085816003019080519060200190613679929190613af4565b508160058960405161368b919061482b565b9081526020016040518091039020886040516136a7919061482b565b9081526020016040518091039020876040516136c3919061482b565b908152602001604051809103902060008b815260200190815260200160002060040181905550600760008673ffffffffffffffffffffffffffffffffffffffff1673ffffffffffffffffffffffffffffffffffffffff168152602001908152602001600020600601600081548092919061373c90614745565b91905055505050505050505050505050565b60008060008060008060058a604051613767919061482b565b908152602001604051809103902089604051613783919061482b565b90815260200160405180910390208860405161379f919061482b565b9081526020016040518091039020600088815260200190815260200160002060000160009054906101000a900473ffffffffffffffffffffffffffffffffffffffff169050600060058b6040516137f6919061482b565b90815260200160405180910390208a604051613812919061482b565b90815260200160405180910390208960405161382e919061482b565b90815260200160405180910390206000898152602001908152602001600020600201549050600060058c604051613865919061482b565b90815260200160405180910390208b604051613881919061482b565b90815260200160405180910390208a60405161389d919061482b565b908152602001604051809103902060008a8152602001908152602001600020600401549050600060058d6040516138d4919061482b565b90815260200160405180910390208c6040516138f0919061482b565b90815260200160405180910390208b60405161390c919061482b565b908152602001604051809103902060008b8152602001908152602001600020600601549050600060058e604051613943919061482b565b90815260200160405180910390208d60405161395f919061482b565b90815260200160405180910390208c60405161397b919061482b565b908152602001604051809103902060008c8152602001908152602001600020600a015490508484848484995099509950995099505050505050945094509450945094565b6000806005866040516139d2919061482b565b9081526020016040518091039020856040516139ee919061482b565b908152602001604051809103902084604051613a0a919061482b565b9081526020016040518091039020600084815260200190815260200160002090506000816009015490506000811415613a4857600092505050613ae6565b60005b81811015613ade573373ffffffffffffffffffffffffffffffffffffffff1683600801600083815260200190815260200160002060000160009054906101000a900473ffffffffffffffffffffffffffffffffffffffff1673ffffffffffffffffffffffffffffffffffffffff161415613acb5760019350505050613ae6565b8080613ad690614745565b915050613a4b565b506000925050505b949350505050565b60015481565b828054613b00906147bd565b90600052602060002090601f016020900481019282613b225760008555613b69565b82601f10613b3b57805160ff1916838001178555613b69565b82800160010185558215613b69579182015b82811115613b68578251825591602001919060010190613b4d565b5b509050613b769190613bba565b5090565b508054613b86906147bd565b6000825580601f10613b985750613bb7565b601f016020900490600052602060002090810190613bb69190613bba565b5b50565b5b80821115613bd3576000816000905550600101613bbb565b5090565b6000604051905090565b600080fd5b600080fd5b600073ffffffffffffffffffffffffffffffffffffffff82169050919050565b6000613c1682613beb565b9050919050565b613c2681613c0b565b8114613c3157600080fd5b50565b600081359050613c4381613c1d565b92915050565b600080fd5b600080fd5b6000601f19601f8301169050919050565b7f4e487b7100000000000000000000000000000000000000000000000000000000600052604160045260246000fd5b613c9c82613c53565b810181811067ffffffffffffffff82111715613cbb57613cba613c64565b5b80604052505050565b6000613cce613bd7565b9050613cda8282613c93565b919050565b600067ffffffffffffffff821115613cfa57613cf9613c64565b5b613d0382613c53565b9050602081019050919050565b82818337600083830152505050565b6000613d32613d2d84613cdf565b613cc4565b905082815260208101848484011115613d4e57613d4d613c4e565b5b613d59848285613d10565b509392505050565b600082601f830112613d7657613d75613c49565b5b8135613d86848260208601613d1f565b91505092915050565b60008060008060808587031215613da957613da8613be1565b5b6000613db787828801613c34565b945050602085013567ffffffffffffffff811115613dd857613dd7613be6565b5b613de487828801613d61565b935050604085013567ffffffffffffffff811115613e0557613e04613be6565b5b613e1187828801613d61565b925050606085013567ffffffffffffffff811115613e3257613e31613be6565b5b613e3e87828801613d61565b91505092959194509250565b6000819050919050565b613e5d81613e4a565b8114613e6857600080fd5b50565b600081359050613e7a81613e54565b92915050565b60008060408385031215613e9757613e96613be1565b5b6000613ea585828601613c34565b9250506020613eb685828601613e6b565b9150509250929050565b613ec981613e4a565b82525050565b600081519050919050565b600082825260208201905092915050565b60005b83811015613f09578082015181840152602081019050613eee565b83811115613f18576000848401525b50505050565b6000613f2982613ecf565b613f338185613eda565b9350613f43818560208601613eeb565b613f4c81613c53565b840191505092915050565b6000608082019050613f6c6000830187613ec0565b8181036020830152613f7e8186613f1e565b90508181036040830152613f928185613f1e565b90508181036060830152613fa68184613f1e565b905095945050505050565b600060208284031215613fc757613fc6613be1565b5b6000613fd584828501613c34565b91505092915050565b613fe781613c0b565b82525050565b600061010082019050614003600083018b613fde565b8181036020830152614015818a613f1e565b905081810360408301526140298189613f1e565b9050818103606083015261403d8188613f1e565b905061404c6080830187613ec0565b81810360a083015261405e8186613f1e565b905061406d60c0830185613ec0565b61407a60e0830184613ec0565b9998505050505050505050565b600060208201905061409c6000830184613fde565b92915050565b6000602082840312156140b8576140b7613be1565b5b60006140c684828501613e6b565b91505092915050565b600060808201905081810360008301526140e98187613f1e565b905081810360208301526140fd8186613f1e565b905081810360408301526141118185613f1e565b90506141206060830184613ec0565b95945050505050565b600080600080600060a0868803121561414557614144613be1565b5b600086013567ffffffffffffffff81111561416357614162613be6565b5b61416f88828901613d61565b955050602086013567ffffffffffffffff8111156141905761418f613be6565b5b61419c88828901613d61565b945050604086013567ffffffffffffffff8111156141bd576141bc613be6565b5b6141c988828901613d61565b93505060606141da88828901613e6b565b92505060806141eb88828901613e6b565b9150509295509295909350565b600060808201905061420d6000830187613fde565b818103602083015261421f8186613f1e565b905081810360408301526142338185613f1e565b905081810360608301526142478184613f1e565b905095945050505050565b60006040820190506142676000830185613ec0565b6142746020830184613ec0565b9392505050565b600060a08201905081810360008301526142958188613f1e565b905081810360208301526142a98187613f1e565b905081810360408301526142bd8186613f1e565b90506142cc6060830185613ec0565b81810360808301526142de8184613f1e565b90509695505050505050565b6000806000806080858703121561430457614303613be1565b5b600085013567ffffffffffffffff81111561432257614321613be6565b5b61432e87828801613d61565b945050602085013567ffffffffffffffff81111561434f5761434e613be6565b5b61435b87828801613d61565b935050604085013567ffffffffffffffff81111561437c5761437b613be6565b5b61438887828801613d61565b925050606061439987828801613e6b565b91505092959194509250565b600060408201905081810360008301526143bf8185613f1e565b905081810360208301526143d38184613f1e565b90509392505050565b6000806000806000806000806000806101408b8d031215614400576143ff613be1565b5b60008b013567ffffffffffffffff81111561441e5761441d613be6565b5b61442a8d828e01613d61565b9a505060208b013567ffffffffffffffff81111561444b5761444a613be6565b5b6144578d828e01613d61565b99505060408b013567ffffffffffffffff81111561447857614477613be6565b5b6144848d828e01613d61565b98505060606144958d828e01613e6b565b97505060806144a68d828e01613e6b565b96505060a06144b78d828e01613c34565b95505060c06144c88d828e01613e6b565b94505060e06144d98d828e01613e6b565b9350506101008b013567ffffffffffffffff8111156144fb576144fa613be6565b5b6145078d828e01613d61565b9250506101208b013567ffffffffffffffff81111561452957614528613be6565b5b6145358d828e01613d61565b9150509295989b9194979a5092959850565b60008115159050919050565b61455c81614547565b82525050565b60006020820190506145776000830184614553565b92915050565b600080600080600060a0868803121561459957614598613be1565b5b600086013567ffffffffffffffff8111156145b7576145b6613be6565b5b6145c388828901613d61565b955050602086013567ffffffffffffffff8111156145e4576145e3613be6565b5b6145f088828901613d61565b945050604086013567ffffffffffffffff81111561461157614610613be6565b5b61461d88828901613d61565b935050606061462e88828901613e6b565b925050608086013567ffffffffffffffff81111561464f5761464e613be6565b5b61465b88828901613d61565b9150509295509295909350565b6000806040838503121561467f5761467e613be1565b5b600061468d85828601613e6b565b925050602061469e85828601613e6b565b9150509250929050565b600060a0820190506146bd6000830188613fde565b6146ca6020830187613ec0565b6146d76040830186613ec0565b6146e46060830185613ec0565b6146f16080830184613ec0565b9695505050505050565b60006020820190506147106000830184613ec0565b92915050565b7f4e487b7100000000000000000000000000000000000000000000000000000000600052601160045260246000fd5b600061475082613e4a565b91507fffffffffffffffffffffffffffffffffffffffffffffffffffffffffffffffff82141561478357614782614716565b5b600182019050919050565b7f4e487b7100000000000000000000000000000000000000000000000000000000600052602260045260246000fd5b600060028204905060018216806147d557607f821691505b602082108114156147e9576147e861478e565b5b50919050565b600081905092915050565b600061480582613ecf565b61480f81856147ef565b935061481f818560208601613eeb565b80840191505092915050565b600061483782846147fa565b915081905092915050565b7f50726f706572747920616c7265616479206d61726b656420617661696c61626c60008201527f6500000000000000000000000000000000000000000000000000000000000000602082015250565b600061489e602183613eda565b91506148a982614842565b604082019050919050565b600060208201905081810360008301526148cd81614891565b9050919050565b7f546869732070726f7065727479206973204e4f54206d61726b656420666f722060008201527f73616c6521000000000000000000000000000000000000000000000000000000602082015250565b6000614930602583613eda565b915061493b826148d4565b604082019050919050565b6000602082019050818103600083015261495f81614923565b9050919050565b7f4f6e6c792061646d696e2063616e205265676973746572206c616e6400000000600082015250565b600061499c601c83613eda565b91506149a782614966565b602082019050919050565b600060208201905081810360008301526149cb8161498f565b9050919050565b60008190508160005260206000209050919050565b600081546149f4816147bd565b6149fe81866147ef565b94506001821660008114614a195760018114614a2a57614a5d565b60ff19831686528186019350614a5d565b614a33856149d2565b60005b83811015614a5557815481890152600182019150602081019050614a36565b838801955050505b50505092915050565b6000614a7282846149e7565b915081905092915050565b7f41646d696e2063616e206f6e6c79207265676973746572206c616e64206f662060008201527f73616d6520636974792e00000000000000000000000000000000000000000000602082015250565b6000614ad9602a83613eda565b9150614ae482614a7d565b604082019050919050565b60006020820190508181036000830152614b0881614acc565b9050919050565b7f537572766579204e756d62657220616c7265616479207265676973746572656460008201527f2100000000000000000000000000000000000000000000000000000000000000602082015250565b6000614b6b602183613eda565b9150614b7682614b0f565b604082019050919050565b60006020820190508181036000830152614b9a81614b5e565b905091905056fea26469706673582212206b4ef728c0e94166dade21ccba7add33a0a7e32a134035fb5ea52628ef9a818864736f6c63430008090033",
  "immutableReferences": {},
  "source": "// SPDX-License-Identifier: MIT\npragma solidity >= 0.5.0 < 0.9.0;\n\ncontract Registry{\n\n    address public superAdmin;\n    uint public totalAdmins;\n    \n    struct Admin{\n        address adminAddress;\n        string city;\n        string district;\n        string state;\n    }\n\n    struct LandDetails{\n        address owner;\n        address admin;\n        uint256 propertyId;\n        uint surveyNumber;\n        uint index;\n        bool registered;\n        uint marketValue;\n        bool markAvailable;\n        mapping(uint => RequestDetails) requests; // reqNo => RequestDetails\n        uint noOfRequests;  // other users requested to this land\n        uint sqft;\n    }\n\n    struct LandLongitudeLatitude{\n        string longitude;\n        string latitude;\n    }\n\n    struct UserProfile{\n        address userAddr;\n        string fullName;\n        string gender;\n        string email;\n        uint256 contact;\n        string residentialAddr;\n        uint totalIndices;\n        uint requestIndices;  // this user requested to other lands\n    }\n\n    struct OwnerOwns{\n        uint surveyNumber;\n        string state;\n        string district;\n        string city;\n    }\n    \n    struct RequestedLands{\n        uint surveyNumber;\n        string state;\n        string district;\n        string city;\n    }\n\n    struct RequestDetails{\n        address whoRequested;\n        uint reqIndex;\n    }\n\n    mapping(address => Admin) public admins;\n    mapping(address => mapping(uint => OwnerOwns)) public ownerMapsProperty;  // ownerAddr => index no. => OwnerOwns \n    mapping(address => mapping(uint => RequestedLands)) public requestedLands;  // ownerAddr => reqIndex => RequestedLands\n    mapping(string => mapping(string => mapping(string => mapping(uint => LandDetails)))) landDetalsMap; // state => district => city => surveyNo => LandDetails\n    mapping(string => mapping(string => mapping(string => mapping(uint => LandLongitudeLatitude)))) LandLongitudeLatitudeMap; // state => district => city => surveyNo => LandLongitudeLatitude\n    mapping(address => UserProfile) public userProfile;\n    \n\n    constructor(){\n        superAdmin = msg.sender;\n    }\n\n    modifier onlyAdmin(){\n        require(admins[msg.sender].adminAddress == msg.sender, \"Only admin can Register land\");\n        _;\n    }\n\n\n    // SuperAdmin: Registers new admin\n    function addAdmin(address _adminAddr, string memory _state, string memory _district, string memory _city) external{\n        Admin storage newAdmin = admins[_adminAddr];\n        totalAdmins++;\n\n        newAdmin.adminAddress = _adminAddr;\n        newAdmin.city = _city;\n        newAdmin.district = _district;\n        newAdmin.state = _state;\n    }\n\n\n    // check if it is admin\n    function isAdmin() external view returns(bool){\n        if(admins[msg.sender].adminAddress == msg.sender){\n            return true;\n        }\n        else return false;\n    }\n\n\n    // Admin: registers land\n    function registerLand(string memory _state, string memory _district, string memory _city, uint256 _propertyId, uint _surveyNo, address _owner, uint _marketValue, uint _sqft, string memory _longitude, string memory _latitude) external onlyAdmin{\n        \n        require(keccak256(abi.encodePacked(admins[msg.sender].state)) == keccak256(abi.encodePacked(_state))  \n        && keccak256(abi.encodePacked(admins[msg.sender].district)) == keccak256(abi.encodePacked(_district))\n        && keccak256(abi.encodePacked(admins[msg.sender].city)) == keccak256(abi.encodePacked(_city)), \"Admin can only register land of same city.\");\n\n        require(landDetalsMap[_state][_district][_city][_surveyNo].registered == false, \"Survey Number already registered!\");\n\n        LandDetails storage newLandRegistry = landDetalsMap[_state][_district][_city][_surveyNo];\n        LandLongitudeLatitude storage newLandLongitudeLatitude = LandLongitudeLatitudeMap[_state][_district][_city][_surveyNo];\n        OwnerOwns storage newOwnerOwns = ownerMapsProperty[_owner][userProfile[_owner].totalIndices];\n        \n\n        newLandRegistry.owner = _owner;\n        newLandRegistry.admin = msg.sender;\n        newLandRegistry.propertyId = _propertyId;\n        newLandRegistry.surveyNumber = _surveyNo;\n        newLandRegistry.index = userProfile[_owner].totalIndices;\n        newLandRegistry.registered = true;\n        newLandRegistry.marketValue = _marketValue;\n        newLandRegistry.markAvailable = false;\n        newLandRegistry.sqft = _sqft;\n        newLandLongitudeLatitude.longitude = _longitude;\n        newLandLongitudeLatitude.latitude = _latitude;\n\n        newOwnerOwns.surveyNumber = _surveyNo;\n        newOwnerOwns.state = _state;\n        newOwnerOwns.district = _district;\n        newOwnerOwns.city = _city;\n\n        userProfile[_owner].totalIndices++;\n    }\n\n\n    // User_1: set user profile\n    function setUserProfile(string memory _fullName, string memory _gender, string memory _email, uint256 _contact, string memory _residentialAddr) external{\n        \n        UserProfile storage newUserProfile = userProfile[msg.sender];\n\n        newUserProfile.fullName = _fullName;\n        newUserProfile.gender = _gender;\n        newUserProfile.email = _email;\n        newUserProfile.contact = _contact;\n        newUserProfile.residentialAddr = _residentialAddr;\n    }\n\n\n    // User_1: mark property available\n    function markMyPropertyAvailable(uint indexNo) external {\n        \n        string memory state = ownerMapsProperty[msg.sender][indexNo].state;\n        string memory district = ownerMapsProperty[msg.sender][indexNo].district;\n        string memory city = ownerMapsProperty[msg.sender][indexNo].city;\n        uint surveyNumber = ownerMapsProperty[msg.sender][indexNo].surveyNumber;\n\n        require(landDetalsMap[state][district][city][surveyNumber].markAvailable == false, \"Property already marked available\");\n\n        landDetalsMap[state][district][city][surveyNumber].markAvailable = true;\n    \n    }\n\n\n    // User_2: Request for buy  **ownerAddress & index = arguements** \n    function RequestForBuy(string memory _state, string memory _district, string memory _city, uint _surveyNo) external{\n\n        LandDetails storage thisLandDetail = landDetalsMap[_state][_district][_city][_surveyNo];\n        require(thisLandDetail.markAvailable == true, \"This property is NOT marked for sale!\");\n\n        uint req_serialNum = thisLandDetail.noOfRequests; \n        thisLandDetail.requests[req_serialNum].whoRequested = msg.sender;\n        thisLandDetail.requests[req_serialNum].reqIndex = userProfile[msg.sender].requestIndices;\n        thisLandDetail.noOfRequests++;\n\n        // adding requested land to user_2 profile\n        RequestedLands storage newReqestedLands = requestedLands[msg.sender][userProfile[msg.sender].requestIndices];\n        newReqestedLands.surveyNumber = _surveyNo;\n        newReqestedLands.state = _state;\n        newReqestedLands.district = _district;\n        newReqestedLands.city = _city;\n\n        userProfile[msg.sender].requestIndices++;\n\n    }\n\n\n    // User_1: Accept the buy request; sell.\n    function AcceptRequest(uint _index, uint _reqNo) external{\n\n        uint _surveyNo = ownerMapsProperty[msg.sender][_index].surveyNumber;\n        string memory _state = ownerMapsProperty[msg.sender][_index].state; \n        string memory _district = ownerMapsProperty[msg.sender][_index].district;\n        string memory _city = ownerMapsProperty[msg.sender][_index].city;\n        \n        // updating LandDetails\n        address newOwner = landDetalsMap[_state][_district][_city][_surveyNo].requests[_reqNo].whoRequested;\n        uint newOwner_reqIndex = landDetalsMap[_state][_district][_city][_surveyNo].requests[_reqNo].reqIndex;\n        uint noOfReq = landDetalsMap[_state][_district][_city][_surveyNo].noOfRequests;\n\n        // deleting requested land from all requesters AND removing all incoming requests\n        for(uint i=0; i<noOfReq; i++){\n            address requesterAddr = landDetalsMap[_state][_district][_city][_surveyNo].requests[i].whoRequested;\n            uint requester_reqIndx = landDetalsMap[_state][_district][_city][_surveyNo].requests[i].reqIndex;\n            \n            delete requestedLands[requesterAddr][requester_reqIndx];\n            delete landDetalsMap[_state][_district][_city][_surveyNo].requests[i];\n        }\n\n        landDetalsMap[_state][_district][_city][_surveyNo].owner = newOwner;\n        landDetalsMap[_state][_district][_city][_surveyNo].markAvailable = false;\n        landDetalsMap[_state][_district][_city][_surveyNo].noOfRequests = 0;\n\n        // deleting property from user_1's ownerMapsProperty \n        delete ownerMapsProperty[msg.sender][_index];\n\n        // adding ownerMapsProperty for newOwner\n        uint newOwnerTotProp = userProfile[newOwner].totalIndices;\n        OwnerOwns storage newOwnerOwns = ownerMapsProperty[newOwner][newOwnerTotProp];\n       \n        newOwnerOwns.surveyNumber = _surveyNo;\n        newOwnerOwns.state = _state;\n        newOwnerOwns.district = _district;\n        newOwnerOwns.city = _city;\n\n        landDetalsMap[_state][_district][_city][_surveyNo].index = newOwnerTotProp;\n\n        userProfile[newOwner].totalIndices++;\n\n    }\n\n\n    \n    //******* GETTERS **********\n\n    // return land details \n    function getLandDetails(string memory _state, string memory _district, string memory _city, uint _surveyNo) external view returns(address, uint256, uint, uint, uint){\n        \n        address owner = landDetalsMap[_state][_district][_city][_surveyNo].owner;\n        uint256 propertyid = landDetalsMap[_state][_district][_city][_surveyNo].propertyId;\n        uint indx = landDetalsMap[_state][_district][_city][_surveyNo].index;\n        uint mv = landDetalsMap[_state][_district][_city][_surveyNo].marketValue;\n        uint sqft = landDetalsMap[_state][_district][_city][_surveyNo].sqft;\n        return(owner, propertyid, indx, mv, sqft);\n    }\n    function getLandLongitudeLatitude(string memory _state, string memory _district, string memory _city, uint _surveyNo) public view returns (string memory, string memory){\n        string memory longitude = LandLongitudeLatitudeMap[_state][_district][_city][_surveyNo].longitude;\n        string memory latitude = LandLongitudeLatitudeMap[_state][_district][_city][_surveyNo].latitude;\n        return (longitude, latitude);\n    }\n    function getRequestCnt_propId(string memory _state, string memory _district, string memory _city, uint _surveyNo) external view returns(uint, uint256){\n        uint _noOfRequests = landDetalsMap[_state][_district][_city][_surveyNo].noOfRequests;\n        uint256 _propertyId = landDetalsMap[_state][_district][_city][_surveyNo].propertyId;\n        return(_noOfRequests, _propertyId);\n    }\n\n    function getRequesterDetail(string memory _state, string memory _district, string memory _city, uint _surveyNo, uint _reqIndex) external view returns(address){\n        address requester = landDetalsMap[_state][_district][_city][_surveyNo].requests[_reqIndex].whoRequested;\n        return(requester);\n    }\n\n    function isAvailable(string memory _state, string memory _district, string memory _city, uint _surveyNo) external view returns(bool){\n        bool available = landDetalsMap[_state][_district][_city][_surveyNo].markAvailable;\n        return(available);\n    }\n\n    function getOwnerOwns(uint indx) external view returns(string memory, string memory, string memory, uint){\n        \n        uint surveyNo = ownerMapsProperty[msg.sender][indx].surveyNumber;\n        string memory state = ownerMapsProperty[msg.sender][indx].state;\n        string memory district = ownerMapsProperty[msg.sender][indx].district;\n        string memory city = ownerMapsProperty[msg.sender][indx].city;\n\n        return(state, district, city, surveyNo);\n    }\n\n    function getRequestedLands(uint indx) external view returns(string memory, string memory, string memory, uint){\n        \n        uint surveyNo = requestedLands[msg.sender][indx].surveyNumber;\n        string memory state = requestedLands[msg.sender][indx].state;\n        string memory district = requestedLands[msg.sender][indx].district;\n        string memory city = requestedLands[msg.sender][indx].city;\n\n        return(state, district, city, surveyNo);\n    }\n\n    function getUserProfile() external view returns(string memory, string memory, string memory, uint256, string memory){\n        \n        string memory fullName = userProfile[msg.sender].fullName;\n        string memory gender = userProfile[msg.sender].gender;\n        string memory email = userProfile[msg.sender].email;\n        uint256 contact = userProfile[msg.sender].contact;\n        string memory residentialAddr = userProfile[msg.sender].residentialAddr;\n\n        return(fullName, gender, email, contact, residentialAddr);\n    }\n\n    function getIndices() external view returns(uint, uint){\n\n        uint _totalIndices = userProfile[msg.sender].totalIndices;\n        uint _reqIndices = userProfile[msg.sender].requestIndices;\n\n        return(_totalIndices, _reqIndices);\n    }\n\n\n    function didIRequested(string memory _state, string memory _district, string memory _city, uint _surveyNo) external view returns(bool){\n        \n        LandDetails storage thisLandDetail = landDetalsMap[_state][_district][_city][_surveyNo];\n        uint _noOfRequests = thisLandDetail.noOfRequests;\n\n        if(_noOfRequests == 0) \n            return (false);\n\n        for(uint i=0; i<_noOfRequests; i++){\n            if(thisLandDetail.requests[i].whoRequested == msg.sender){\n                return (true);\n            }\n        } \n\n        return(false);\n    } \n\n}",
  "sourcePath": "C:\\Users\\shubh\\Desktop\\2\\land-registry-master\\contracts\\Registry.sol",
  "compiler": {
    "name": "solc",
    "version": "0.8.9+commit.e5eed63a.Emscripten.clang"
  },
  "schemaVersion": "3.4.11",
  "updatedAt": "2023-01-22T11:39:02.246Z",
  "networkType": "ethereum",
  "devdoc": {
    "kind": "dev",
    "methods": {},
    "version": 1
  },
  "userdoc": {
    "kind": "user",
    "methods": {},
    "version": 1
  }
}